:020000040800F2
:100000000021002001010008750E0008BF0B000848
:10001000710E0008FD0900085D22000800000000C4
:10002000000000000000000000000000C51F0008E4
:10003000010A00080000000093010008B120000838
:100040001B0100081B0100081B0100081B01000820
:100050001B0100081B0100081B0100081B01000810
:100060001B0100081B0100081B0100081B01000800
:100070001B0100081B0100081B0100081B010008F0
:100080001B0100081B0100081B0100081B010008E0
:100090001B0100081B0100081B0100081B010008D0
:1000A0001B0100081B0100081B0100081B010008C0
:1000B0001B0100081B0100081B0100081B010008B0
:1000C0001B0100081B0100081B0100081B010008A0
:1000D0001B0100081B0100081B0100081B01000890
:1000E0001B0100081B0100081B010008DFF80CD0F1
:1000F00000F0B2F800480047ED240008002100207D
:100100000648804706480047FEE7FEE7FEE7FEE7B1
:10011000FEE7FEE7FEE7FEE7FEE7FEE7D920000880
:10012000ED00000872B6704762B67047EFF31080BA
:1001300072B6704780F310887047B0FA80F070474D
:1001400090FAA0F0704730BF704720BF70470000A2
:10015000EFF3108072B6704780F3108870471D4827
:100160004FF0FF010170002080F309881A48012137
:1001700001701A484FF08051016062B6FEE71748DF
:100180004FF080510160704714484FF0805101607A
:10019000704772B6EFF3098028B1203880E8F00F7D
:1001A0000F490968086000B50E4880475DF804EB08
:1001B0000D480E490A78027009480D490A68026024
:1001C000106890E8F00F203080F309884EF0040E9C
:1001D00062B6704722ED00E03E00002004ED00E032
:1001E00044000020E91300083700002038000020F8
:1001F0004C0000202DE9F05F0546002092469B460A
:1002000088460646814640241BE02846414647462C
:10021000224600F042F853465A46C01A914110D384
:1002200011461846224600F029F82D1A67EB0108FE
:100230004F4622460120002100F020F817EB00096C
:100240004E41201EA4F10104DFDC484631462A4617
:100250004346BDE8F09F0000064C074D06E0E0680D
:1002600040F0010394E8070098471034AC42F6D3FD
:10027000FFF740FF5838000878380008202A04DBD0
:10028000203A00FA02F1002070479140C2F12003A9
:1002900020FA03F3194390407047202A04DB203AE8
:1002A00021FA02F00021704721FA02F3D040C2F196
:1002B00020029140084319467047000070B520A005
:1002C00001F0CEFF25A001F0CBFF01F086F90A2155
:1002D00090FBF1F201FB120401F07FF9642190FB25
:1002E000F1F201FB12000A2190FBF1F501F075F922
:1002F000642190FBF1F623462A4631461EA001F008
:10030000AFFF4FF47A7123A001F0AAFF26480178CD
:1003100026A001F0A5FF00F04FFB2A49B0FBF1F445
:10032000214629A001F09CFF2D4801682DA001F075
:1003300097FF3148016831A001F092FF70BD0000C5
:100340000D0A20204D69637269756D2075432F4F2A
:10035000532D494920200D0A00000000202053544D
:100360002053544D33322028436F727465782D4DDD
:1003700033290D0A0D0A0000202075432F4F532DFD
:1003800049493A202056256C642E256C64256C64FE
:100390000D0A000020205469636B526174653A2095
:1003A000256C6420200D0A002800002020204350E6
:1003B000552055736167653A20256C6425200D0A28
:1003C0000000000040420F00202043505520537091
:1003D0006565643A256C64204D487A20200D0A003A
:1003E000580000202020235469636B733A20256C49
:1003F0006420200D0A0000001C0000202020234360
:10040000747853773A20256C6420200D0A0D0A0079
:10041000704770477047000008B501F0E7F800F03A
:10042000CBFD03233F4A00213F4800F0F1FD00903F
:100430003EA001F015FF6A4642A1032000F0A0FE95
:100440000423434A0021434800F0E2FD009042A00B
:1004500001F006FF6A4646A1042000F091FE052344
:10046000464A0021464800F0D3FD009045A001F027
:10047000F7FE6A4649A1052000F082FE06234A4A9B
:1004800000214A4800F0C4FD009049A001F0E8FEB8
:100490006A464DA1062000F073FE07234D4A002155
:1004A0004D4800F0B5FD00904CA001F0D9FE6A4621
:1004B00050A1072000F064FE0823514A0021514852
:1004C00000F0A6FD009050A001F0CAFE6A4654A1BB
:1004D000082000F055FE0923544A0021544800F03A
:1004E00097FD009053A001F0BBFE6A4657A109207A
:1004F00000F046FE0A23584A0021584800F088FDC3
:10050000009057A001F0ACFE6A465BA10A2000F003
:1005100037FE06E04FF4967300221146104600F0B5
:100520009FFFF7E75C0400208906000843726561BD
:1005300074204170705F5461736B55737265310D37
:100540000A000000537461727420557365723100A3
:100550005C060020F106000843726561742041705A
:10056000705F5461736B55737265320D0A00000041
:100570005374617274205573657232005C080020F8
:10058000550700084372656174204170705F5461C3
:10059000736B55737265330D0A00000053746172FA
:1005A00074205573657233005C0A0020B907000897
:1005B0004372656174204170705F5461736B557351
:1005C0007265340D0A000000537461727420557313
:1005D000657234005C0C00202108000843726561DC
:1005E00074204170705F5461736B55737265350D83
:1005F0000A000000537461727420557365723500EF
:100600005C0E00208508000843726561742041700B
:10061000705F5461736B55737265360D0A0000008C
:100620005374617274205573657236005C1000203B
:10063000E90800084372656174204170705F54617D
:10064000736B55737265370D0A0000005374617245
:1006500074205573657237005C1200205109000840
:100660004372656174204170705F5461736B5573A0
:100670007265380D0A00000053746172742055735E
:1006800065723800704770470FA001F0E9FD1AE06D
:100690004FF48071104800F08EFA4FF496730022E8
:1006A0001146104600F0DCFE4FF480710A4800F05D
:1006B00084FA4FF4967300221146104600F0D0FEE3
:1006C00006A001F0CDFDE3E74170705F5461736BEC
:1006D00055737265310D0A00001001404170705F62
:1006E0005461736B7374617274310D0A0000000001
:1006F0000EA001F0B5FD18E04FF400710F4800F0B6
:100700005AFA002301221946184600F0A9FE4FF4B8
:1007100000710A4800F051FA0023012219461846D8
:1007200000F09EFE06A001F09BFDE5E74170705FC2
:100730005461736B55737265320D0A0000100140ED
:100740004170705F5461736B7374617274320D0A1F
:10075000000000000EA001F083FD18E04FF480615E
:100760000F4800F028FA642300221146104600F0DA
:1007700077FE4FF480610A4800F01FFA64230022DC
:100780001146104600F06CFE06A001F069FDE5E799
:100790004170705F5461736B55737265330D0A005D
:1007A000001001404170705F5461736B737461722B
:1007B00074330D0A000000000FA001F051FD1AE093
:1007C0004FF40061104800F0F6F94FF4C8730022AE
:1007D0001146104600F044FE4FF400610A4800F054
:1007E000ECF94FF4C87301220021084600F038FEEE
:1007F00006A001F035FDE3E74170705F5461736B53
:1008000055737265340D0A00001001404170705F2D
:100810005461736B7374617274340D0A00000000CC
:100820000EA001F01DFD18E04FF480510F4800F0BC
:10083000C2F9002301221946184600F011FE4FF4B8
:1008400080510A4800F0B9F90023012219461846E0
:1008500000F006FE06A001F003FDE5E74170705FC1
:100860005461736B55737265350D0A0000100140B9
:100870004170705F5461736B7374617274350D0AEB
:10088000000000000EA001F0EBFC18E04FF4005156
:100890000F4800F090F9C82300221146104600F0DE
:1008A000DFFD4FF400510A4800F087F9C823012208
:1008B0000021084600F0D4FD06A001F0D1FCE5E7D8
:1008C0004170705F5461736B55737265360D0A0029
:1008D000001001404170705F5461736B73746172FA
:1008E00074360D0A000000000FA001F0B9FC1AE0F8
:1008F0004FF48041104800F05EF94FF42F7300224E
:100900001146104600F0ACFD4FF480410A4800F05B
:1009100054F94FF42F7302220021084600F0A0FD85
:1009200006A001F09DFCE3E74170705F5461736BBA
:1009300055737265370D0A00001001404170705FF9
:100940005461736B7374617274370D0A0000000098
:100950000FA001F085FC1AE04FF40041104800F0B0
:100960002AF94FF4C87300221146104600F078FDB2
:100970004FF400410A4800F020F94FF4617300225F
:100980001146104600F06CFD06A001F069FCE3E79B
:100990004170705F5461736B55737265380D0A0056
:1009A000001001404170705F5461736B7374617229
:1009B00074380D0A0000000000B585B0684601F0EB
:1009C000E9F8019805B000BD10B501F0D9F801F0C3
:1009D000DDFA00F025F800F04EFA4FF4165001F061
:1009E000ABFB4FF4FC6000F011F94FF4FC6000F039
:1009F000CFF94FF6FF7000F0DFF910BD00BFFEE742
:100A00007047002109E0002201E0531C9AB240F631
:100A1000B8339A42F9DB4B1C99B28142F3DB704741
:100A200008B54FF47F40ADF8000003208DF80200B8
:100A300010208DF803006946164800F031F84FF495
:100A40008060ADF8000004208DF80300694612486C
:100A500000F026F84FF40070ADF8000003208DF888
:100A6000020018208DF8030069460B4800F018F8C2
:100A70000420ADF8000003208DF8020010208DF84E
:100A800003006946054800F00BF80421034800F014
:100A900094F808BD00100140000801400014014016
:100AA0002DE9F04102460025002600200023002405
:100AB000002791F803C00CF00F0591F803C00CF06B
:100AC000100CBCF1000F03D091F802C04CEA0505F0
:100AD00091F800C0BCF1000F31D0146800202BE069
:100AE0004FF0010C0CFA00F3B1F800C00CEA030659
:100AF0009E4220D183004FF00F0C0CFA03F7BC4349
:100B000005FA03FC4CEA040491F803C0BCF1280F79
:100B100006D14FF0010C0CFA00FCC2F814C00AE038
:100B200091F803C0BCF1480F05D14FF0010C0CFA4D
:100B300000FCC2F810C0401C0828D1D31460B1F8E2
:100B400000C0BCF1FF0F34DD546800202EE000F13E
:100B5000080C4FF0010808FA0CF3B1F800C00CEAD9
:100B600003069E4221D183004FF00F0C0CFA03F7CD
:100B7000BC4305FA03FC4CEA040491F803C0BCF141
:100B8000280F05D100F1080C08FA0CF8C2F81480FF
:100B900091F803C0BCF1480F07D100F1080C4FF0E9
:100BA000010808FA0CF8C2F81080401C0828CED3BF
:100BB0005460BDE8F081416170470161704700BF3A
:100BC000FEE7000008B54FF6FF70ADF80000032007
:100BD0008DF8020048208DF8030069460148FFF7B0
:100BE0005FFF08BD0010014008B54FF6FF70ADF87B
:100BF000000003208DF8020010208DF803006946E4
:100C00000148FFF74DFF08BD0010014030B5054613
:100C100000240021084600F0C3F800F0EFF800BF00
:100C200003E0284600F0D0F8641CB4F5963FF8D3F2
:100C300030BD000008B50121182000F091FF4FF4ED
:100C4000E460ADF8000001208DF8020010208DF85E
:100C5000030069460648FFF723FFFFF7C5FF044876
:100C60001030006840F4C46001491031086008BDCC
:100C7000000C014070B505460E461446A4F1200054
:100C8000C4B204EB4400044901EB0012314628468B
:100C900000F01AF870BD000088250008F0B507467E
:100CA0000C46002540F23F1609E0227831463846CE
:100CB000FFF7E0FFA6F1100086B2641C6D1C2078DF
:100CC00008B1142DF1D3F0BD2DE9F0430646894655
:100CD000174600240025A046B0464946404600F08D
:100CE0005FF800BF1EE000F089F800250FE037F83C
:100CF00014000121A940084020B90C48008800F0E8
:100D000063F803E00A48008800F05EF86D1C102DBF
:100D1000EDD308F1010000F0FF084946404600F01D
:100D20003FF8641C182CDED3BDE8F08316000020C9
:100D30001400002070B504464FF40070124908609A
:100D4000401008602020091F08601048C46020205F
:100D5000091D0860091F0860C0000860FFF732FF26
:100D60004FF48060084908600848806885B208151B
:100D7000091F0860FFF738FF4FF400700249091F90
:100D80000860284670BD0000140C014000100140AE
:100D900001B5BDF800000149088008BD160000201B
:100DA00030B504460D462146202000F041F8294682
:100DB000212000F03DF830BD01B5BDF8000001492B
:100DC000088008BD140000204FF40071094A11602A
:100DD0004910121F1160202111600749C8602021AD
:100DE000121D1160121F1160C900116049001160CD
:100DF00070470000140C0140001001404FF40070D7
:100E000009490860401008602020091F086022205E
:100E10000649C860202004490860091F0860C00016
:100E20000860400008607047140C01400010014049
:100E30004FF400720C4B1A6052101A6020221B1FD4
:100E40001A600A4AD06020221B1D1A601B1F1A60FC
:100E5000D2001A60054AD16020221B1D1A601B1F98
:100E60001A60D2001A607047140C01400010014053
:100E700000BFFEE7704710B500214FF0006000F0A2
:100E80000FF84FF4E06000F001F810BD0249014393
:100E9000024A1160704700000000FA050CED00E006
:100EA000024A0A400243024B1A60704780FFFF1F4C
:100EB00008ED00E010B500F011F800F0FBFB00F0C9
:100EC00023FC00F045FC00F0CDFB00F0A5FB00F09A
:100ED00073FC00F099FC00F002F810BD70477047F9
:100EE00010B500241A480078012830D1FFF730F9F6
:100EF000044618480078002804DD16480078401E93
:100F00001449087013480078F0B913480078D8B92C
:100F100000F0E6FC1148007811490978884213D0A6
:100F200010480E49097850F821000F49086008461A
:100F30000068806B401C096888630C480068401C8E
:100F40000A490860FFF720F92046FFF705F910BDB0
:100F50003E00002035000020360000203800002030
:100F6000370000202C1800204C0000201C0000201E
:100F700010B50B48007890B900F0B2FC0948007831
:100F80000949087009480749097850F821000849BB
:100F900008600846006807490860FFF7E0F810BDE0
:100FA0003E00002038000020370000202C180020D0
:100FB0004C0000204400002010B50024022000F066
:100FC00017FAFFF7C5F8044600200B4908602046D1
:100FD000FFF7C2F8642000F00BFAFFF7B9F80446F7
:100FE0000548006805490860012005490870204649
:100FF000FFF7B2F810BD0000400000202C000020D8
:101000003400002010B504462046FFF701FA10BD59
:101010002DE9FE4F06460F4690461C464FF000094C
:10102000FFF796F8814620480078002805DD4846FD
:10103000FFF792F83C20BDE8FE8F1C4850F82400D2
:1010400060BB0120194941F824004846FFF784F8A5
:10105000002342463946304600F024F982460020FB
:10106000009001900346024651460290204600F04F
:1010700065FC054635B90E48007801280CD100F012
:10108000F5FB09E0FFF764F881460020074941F8C5
:1010900024004846FFF760F82846CCE74846FFF7AB
:1010A0005BF82820C7E70000350000202C1800203E
:1010B0003E0000202DE9F04F85B081468A469346D8
:1010C0001C46DDE90F78129D00200390FFF740F8E1
:1010D000039023480078002806DD0398FFF73CF8CA
:1010E0003C2005B0BDE8F08F1E4850F8240088BBB6
:1010F00001201C4941F824000398FFF72DF82A46E7
:101100004146384600F01EFD2B465A465146484699
:1011100000F0C8F804901198CDE9008002953A4695
:1011200020460E9B049900F009FC064636B90E488D
:10113000007801280CD100F099FB09E0FFF708F8CE
:1011400003900020074941F824000398FFF704F8B2
:101150003046C6E7FFE70398FEF7FEFF2820C0E70A
:10116000350000202C1800203E00002010B5044659
:101170002046FFF74EF910BD10B5FFF74BF910BD33
:101180002DE9F0470646884614464FF000091D48F1
:101190000078002803DD12202070BDE8F087FEF7FC
:1011A000D7FF8146FF2E03D11748006890F83260C0
:1011B000164850F826502DB94846FEF7CDFF43207B
:1011C0002070EAE7012D05D14846FEF7C5FF432010
:1011D0002070E2E7404600F0A7FB07460F2F05DD31
:1011E0004846FEF7B9FF41202070D6E7414605F199
:1011F0004C0000F08BFB4846FEF7AEFF002020704D
:1012000000BFCAE735000020440000202C18002051
:1012100010B5FFF737FA10BD2DE9F04707460D4628
:101220004FF0000A002028606860FEF791FF8246B8
:10123000FF2F03D11948006890F83270184850F811
:1012400027402CB95046FEF787FF4320BDE8F087C2
:10125000012C04D15046FEF77FFF4320F6E7207CA7
:1012600000F0010020B95046FEF776FF4520EDE77B
:101270000026D4F80C90D4F808805046FEF76CFF96
:1012800000E0761C58F8041B0029FAD0B000286052
:10129000A9EB0600800068600020D7E7440000202A
:1012A0002C18002070B5044610464FF0807505607C
:1012B000051F28462C606FF00106051F28462E608A
:1012C0004FF01236051F28462E604FF00336051FDB
:1012D00028462E604FF00236051F28462E607610F5
:1012E000051F28462E60051F284629604FF011363D
:1012F000051F28462E604FF01036051F28462E6029
:101300004FF00936051F28462E604FF00836051F9E
:1013100028462E604FF00736051F28462E604FF0F6
:101320000636051F28462E604FF00536051F284655
:101330002E604FF00436051F28462E6070BD000059
:101340002DE9F04105464FF00008FEF701FF804609
:10135000FF2D05D12048006890F83250012608E0A2
:101360001D48006890F83200A84201D1012600E033
:1013700000261A4850F825402CB94046FEF7ECFEEE
:101380004820BDE8F081012C04D14046FEF7E4FE80
:101390004320F6E794F834701148C05D94F8351096
:1013A00088430F49C8550846C05D30B994F83610D7
:1013B0000C48007888430B49087094F8300040F0DE
:1013C000080084F830004046FEF7C6FE012E01D129
:1013D00000F04CFA0020D4E7440000202C18002034
:1013E0003A0000203900002010B5FFF74CF910BD7D
:1013F00070B50546002616480078002800DD70BD4F
:10140000002D23DDFEF7A4FE06461248006890F882
:1014100034401148005D0F49096891F83510884340
:101420000D4908550846005D40B90A48006890F823
:1014300036100A4800788843084908700548006853
:10144000C5853046FEF788FE00F010FA00BFD6E7EB
:1014500035000020440000203A0000203900002020
:101460002DE9F0470746884691461D461748007803
:10147000002802DD5520BDE8F0874FF47A706843FC
:101480004FF47A71B0FBF1F14FF461607843C8EB2F
:10149000081200EB8200484400EB4002C2EBC0108F
:1014A00001EBC004260CA4B22046FFF7A1FF09E01F
:1014B0004FF40040FFF79CFF4FF40040FFF798FF08
:1014C000701E86B2002EF3DC0020D4E73500002029
:1014D00070B504460025FEF73BFE05460248046051
:1014E0002846FEF739FE70BD5800002070B5002672
:1014F00000F072F8FEF72CFE064631480068401CEA
:101500002F4908603046FEF727FE2E480078012854
:1015100053D12D48007820B1012804D0022809D1E8
:1015200003E001250BE0002509E001250120264903
:10153000087004E0012500202349087000BF00BFA7
:1015400005B970BD2148046833E0FEF701FE064688
:10155000E08D50B3E08D401E80B2E08528BB94F84A
:10156000300000F0370040B114F8300F20F03700A1
:10157000207001206070303C02E0002084F83100CF
:1015800094F8300000F0080078B93434A07810499D
:10159000097808430E49087020780E49085C617884
:1015A000084314F834190B4A505464693046FEF766
:1015B000D3FD94F832001F28C7D100BFC1E7000057
:1015C000580000203E000020540000205000002061
:1015D000390000203A00002070474FF48F707047A8
:1015E00010B5FFF7E9F90446204610BD10B5FFF726
:1015F000F7FF4FF47A71B0FBF1F4601E4FF0E02179
:1016000048610846006940F0050008610846006925
:1016100040F00200086110BD70B58C210F4800F049
:101620001BF90E4C04F11C0600250AE00020207076
:1016300066603F20A0720021E1721C341C36681CD9
:1016400085B2042DF2DB0020207060603F20A07284
:101650000021E17201480249086070BDA01300201A
:101660002400002030B54FF4A071104800F0F4F8C9
:101670000E4B03F1200500240AE0002018705D6085
:101680003F20D8730021197420332035601C84B2A8
:10169000092CF2DB0020187058603F20D87300211D
:1016A000197402480249086030BD00006012002031
:1016B0002000002000200A4908600A4908700A49F1
:1016C00008700A4908700A4908700A4908600A49FE
:1016D00008600A4908600A4908600A4908707047AA
:1016E0005800002035000020360000203F00002078
:1016F0003E0000201C0000204000002030000020A0
:101700002C0000203400002000220B4B1A700B49E3
:10171000002004E0002201F8012B421CD0B2042872
:10172000F8DB0022064B1A70064B1A70064B1A6043
:10173000064B1A6070470000390000203A00002074
:1017400037000020380000204C000020440000201A
:1017500030B54FF48A61144800F07EF880211348B8
:1017600000F07AF8104B03F15C0500240AE05D619B
:101770003F2083F84C0000214D20C1545C335C3580
:10178000601CC4B20B2CF2D3002058613F2083F8B8
:101790004C0000214D20C15400200549086002483A
:1017A0000449086030BD0000AC1800202C1800204F
:1017B000500000204800002000B587B00320002121
:1017C00080220A4BCDE90132CDE903104FF6FF70BC
:1017D0001F23074A00900748FFF76CFC06AA06A1E2
:1017E0001F20FFF7CDFC07B000BD00002C16002025
:1017F000281800205D1A000875432F4F532D4949C2
:101800002049646C6500000000B587B0032000210A
:1018100080220A4BCDE90132CDE903104FF6FE706C
:101820001E23074A00900748FFF744FC06AA06A1BA
:101830001E20FFF7A5FC07B000BD00002C140020FF
:1018400028160020811A000875432F4F532D49494F
:10185000205374617400000004E0002200F8012BA2
:101860004A1E91B20029F8DC7047000010B5002430
:10187000FEF76EFC044613480078F0B91248007871
:10188000D8B900F02DF8114800781149097888423C
:1018900013D010480D49097850F821000E4908600E
:1018A00008460068806B401C096888630B48006824
:1018B000401C0A490860FEF762FC2046FEF74CFC1B
:1018C00010BD000035000020360000203800002048
:1018D000370000202C1800204C0000201C000020A5
:1018E0000649074A1278885C0649095C034A515C3C
:1018F00001EBC001044A117070470000583700081E
:10190000390000203A000020380000200246002064
:1019100005E011F8013B02F8013B431CD8B20B78FB
:10192000002BF6D1137070470146002002E0491CDD
:10193000421CD0B20A78002AF9D170472DE9F84F3D
:1019400005460E4617469846DDE90BABDDF82890B4
:1019500000200090FEF7FCFB00903A480468002C41
:101960006BD0183454F8040C364908600098FEF720
:10197000F3FB44F8186CA576002020766076E082B0
:1019800044F814AC44F80C9C44F8107C24F808BCCF
:1019900024F8068CE077E810207705F00700E07661
:1019A000217F01208840A077E17E01208840607778
:1019B00000206060A0602061E0602062A062606240
:1019C000E06220633F2084F83400183C00214D2061
:1019D00001552046FFF716FB2046FFF7C7FBFEF731
:1019E000B7FB0090184840F825401848006860612F
:1019F0000020A0611548006810B114480068846197
:101A0000124804603434A078114909780843104919
:101A1000087020780F49085C6178084314F834197D
:101A20000C4A50540C480078401C0B490870009830
:101A3000FEF792FB0020BDE8F88F0098FEF78CFBC4
:101A40004220F8E7480000202C1800205000002019
:101A5000390000203A0000203F000020002400BF91
:101A6000FEF776FB044605480068401C0349086001
:101A70002046FEF771FBFFF77FFBF1E740000020F7
:101A8000002402E0C820FFF7B3FC1A4800780028C1
:101A9000F8D0194800686421B0FBF1F016490860DD
:101AA0000846006828B9002014490870FF20FFF795
:101AB00047FC00BFFEF74CFB044611480068114983
:101AC000086000200E4908602046FEF745FB0D48DF
:101AD000006809490968B0FBF1F0C0F164000749EA
:101AE0000870FFF795FB00F00FF86420FFF780FC0B
:101AF000E0E70000340000202C0000202800002037
:101B000040000020300000207CB5002514E069462C
:101B10002846FFF781FB064666B9094850F825407C
:101B200044B1012C06D0D4E9020100EB81006064CD
:101B30000198A064681CC5B21F2DE8DD7CBD0000C3
:101B40002C18002002F0010343B102F002032BB174
:101B500002E0491E002308C00029FAD170470000A6
:101B600029B1064A92690243044B9A6104E0034A90
:101B700092698243014B9A61704700000010024055
:101B800010B501213C20FFF7EBFF01218803FFF78F
:101B9000E7FF10BD30B500210022002400232D4DA9
:101BA0006D6805F00C0121B1042905D0082923D165
:101BB00005E0294D056022E0274D05601FE0254D19
:101BC0006D6805F47012234D6D6805F480340225AC
:101BD00005EB92421CB9214D554305600BE01D4DAC
:101BE0006D6805F400351DB11C4D5543056002E0DC
:101BF000194D5543056002E0174D056000BF00BF59
:101C0000144D6D6805F0F0010909154D6B5C056810
:101C1000DD4045600F4D6D6805F4E061090A104D27
:101C20006B5C4568DD4085600A4D6D6805F4605168
:101C3000C90A0B4D6B5C4568DD40C560054D6D689C
:101C400005F44041890B074D6B5CC568B5FBF3F5A6
:101C5000056130BD0010024000127A0000093D000D
:101C6000000000201000002000B501210020FFF737
:101C7000DFF84FF47A70FEF7C4FE00210120FFF771
:101C8000D7F841F290711020FFF7D2F84FF41C51B1
:101C90006020FFF7CDF801216120FFF7C9F802218C
:101CA0004620FFF7C5F848F210011320FFF7C0F8EF
:101CB00048F2FE011220FFF7BBF84FF4A0610220AA
:101CC000FFF7B6F841F230010320FFF7B1F840F218
:101CD00003313020FFF7ACF840F203313120FFF739
:101CE000A7F840F203313220FFF7A2F84FF4407119
:101CF0003320FFF79DF803213420FFF799F840F2D5
:101D000003313520FFF794F814213620FFF790F8BF
:101D100040F203313720FFF78BF840F203313820CF
:101D2000FFF786F840F203313920FFF781F84FF4CE
:101D300040713A20FFF77CF803213B20FFF778F849
:101D400040F203313C20FFF773F84FF4A0513D20DF
:101D5000FFF76EF84FF400719220FFF769F840F238
:101D600003319320FFF764F840F60D019020FFF750
:101D70005FF841F218010320FFF75AF840F273119F
:101D80000720FFF755F800BD00B543F20801E32036
:101D9000FFF74EF81221E720FFF74AF841F2312110
:101DA000EF20FFF745F800210120FFF741F84FF43D
:101DB000E0610220FFF73CF841F230010320FFF719
:101DC00037F800210420FFF733F840F207210820FC
:101DD000FFF72EF800210920FFF72AF800210A203A
:101DE000FFF726F800210C20FFF722F800210D2034
:101DF000FFF71EF800210F20FFF71AF8002110202E
:101E0000FFF716F807211120FFF712F80021122022
:101E1000FFF70EF800211320FFF70AF84FF47A704D
:101E2000FEF7EFFD41F290611020FFF701F840F25C
:101E300027211120FEF7FCFF3220FEF7E2FD1D21D5
:101E40001220FEF7F5FF3220FEF7DBFD4FF40061B4
:101E50001320FEF7EDFF14212920FEF7E9FF0B21E7
:101E60002B20FEF7E5FF3220FEF7CBFD00212020DE
:101E7000FEF7DEFF00212120FEF7DAFF07213020E8
:101E8000FEF7D6FF40F207713120FEF7D1FF0621A1
:101E90003220FEF7CDFF40F204713520FEF7C8FF77
:101EA00041F604713620FEF7C3FF04213720FEF708
:101EB000BFFF00213820FEF7BBFF40F2067139203A
:101EC000FEF7B6FF40F201713C20FEF7B1FF0F2193
:101ED0003D20FEF7ADFF00215020FEF7A9FFEF21C6
:101EE0005120FEF7A5FF00215220FEF7A1FF40F28E
:101EF0003F115320FEF79CFF4FF41C516020FEF76A
:101F000097FF01216120FEF793FF00216A20FEF771
:101F10008FFF00218020FEF78BFF00218120FEF73C
:101F200087FF00218220FEF783FF00218320FEF738
:101F30007FFF00218420FEF77BFF00218520FEF734
:101F400077FF10219020FEF773FF00219220FEF70B
:101F50006FFF03219320FEF76BFF4FF488719520EC
:101F6000FEF766FF00219720FEF762FF0021982010
:101F7000FEF75EFF41F218010320FEF759FF40F221
:101F800073110720FEF754FF00BD000010B5FEF7E7
:101F900051FE0020FEF7CEFE094908800846008861
:101FA00048F23021884202D1FFF75EFE01E0FFF7E0
:101FB000EBFE0020FEF7BEFE0149088010BD0000C8
:101FC00018000020704710B500F002F810BD0000A6
:101FD0000CB50020019000903348006840F4803038
:101FE0003149086000BF3048006800F400300090BC
:101FF0000198401C0190009818B90198B0F5A06FA5
:10200000F1D12948006800F4003010B1012000909F
:1020100001E0002000900098012843D12348006887
:1020200040F01000214908600846006820F00300D5
:1020300008600846006840F0020008601A484068DE
:10204000194948600846406848600846406840F4BE
:10205000806048600846406820F47C10486008466C
:10206000406840F4E81048600846006840F080701E
:10207000086000BF0C48006800F000700028F9D02C
:102080000948406820F00300074948600846406856
:1020900040F00200486000BF0348406800F00C00B8
:1020A0000828F9D10CBD00000010024000200240B9
:1020B00010B5FEF74DF8044606480078401C054967
:1020C00008702046FEF748F8FFF710FAFEF708FF01
:1020D00010BD00003500002010B51348006840F026
:1020E00001001149086008464068104908400E493F
:1020F0004860084600680E4908400B4908600846D9
:10210000006820F4802008600846406820F4FE0043
:1021100048604FF41F008860FFF755FF4FF00060E4
:102120000449086010BD0000001002400000FFF8E4
:10213000FFFFF6FE08ED00E01FB504460094002006
:10214000ADF80400ADF80600ADF80800ADF80C00DD
:102150000C20ADF80A006946034800F013F801218D
:10216000014800F003F81FBD0038014021B1828909
:1021700042F40052828104E082894DF6FF731A40D6
:10218000828170472DE9F04786B005460E4600244F
:10219000A24600BFA1460027B08900B100BF2F466C
:1021A0002C8A4CF6FF700440F08804432C82AC89E2
:1021B0004EF6F3100440B088318908437189084312
:1021C0000443AC81AC8A4FF6FF400440B08904431D
:1021D000AC8201A8FFF7DEFC1F48874202D1DDF880
:1021E00010A001E0DDF80CA0A88900F4004040B187
:1021F0000AEBCA0000EB0A1031684900B0FBF1F8A5
:1022000007E00AEBCA0000EB0A1031688900B0FB56
:10221000F1F86420B8FBF0F004012009642101FB0F
:102220001089A88900F4004040B1322000EBC900B9
:10223000B0FBF1F000F00700044308E0322000EBAF
:1022400009106421B0FBF1F000F00F0004432C8171
:1022500006B0BDE8F08700000038014000BFFEE78F
:102260000FB4054B10B503A9044A029800F018F802
:1022700010BC5DF814FB0000CD2400085C000020B9
:1022800002E008C8121F08C1002AFAD1704770473F
:10229000002001E001C1121F002AFBD1704700009D
:1022A0002DE9FF4F8BB09A460F460446002606E004
:1022B00025280BD052460D999047641C761C207837
:1022C0000028F5D10FB03046BDE8F08F0025A946B3
:1022D00001227D4900E0054314F8013F203B02FA4A
:1022E00003F00842F7D120782E2817D114F8010FF7
:1022F00045F004052A280ED06FF02F022078A0F1B7
:10230000300109290AD809EB890102EB410100EBF0
:102310000109641CF2E757F8049B641C20786C28C0
:102320000DD004DC4C2812D06A2811D104E07428A6
:102330000DD07A280CD10AE045F4001507E0617849
:1023400045F48015814202D1641C05F58015641C9A
:10235000207869283ED006DC0028B3D063280BD053
:10236000642804D136E0732810D075285CD052461A
:102370000D999047761CA5E017F8040B8DF8000026
:1023800000208DF80100E846012003E057F8048B97
:102390004FF0FF3069074FF0000501D40AE06D1CD3
:1023A0004D450DDA8542FADB18F805100029F6D103
:1023B00006E06D1C8542FCDB18F805100029F8D1F9
:1023C0002E4404E018F8010B52460D9990476D1EFB
:1023D000F8D277E000200A90C5F302504FF00A0BC4
:1023E00002280CD001CFC117021E71F100020CDAD5
:1023F0000023D0EB030063EB01012D2208E0FF1D59
:1024000027F00707F7E80201EEE72A0504D52B229B
:102410008DF82420012203E0EA070FD02022F7E7FD
:102420000DF12008089218E000200A90C5F3025030
:102430004FF00A0B022803D001CF00210022EFE762
:10244000FF1D27F00707F7E80201F7E75A460A9B46
:10245000FDF7D0FE303208F8012D50EA0102F5D127
:10246000ADEB080000F1200B680701D44FF0010923
:10247000D94502DDA9EB0B0000E0002081460025D4
:1024800006E009A85246405D0D9990476D1C761CE8
:1024900008988542F5DB04E0302052460D999047BC
:1024A000761CB9F10001A9F10109F5DC05E018F885
:1024B000010B52460D999047761CBBF10001ABF120
:1024C000010BF4DC641CFAE60928010000BF064A8F
:1024D000128802F08002002AF9D0C0F30802024BF1
:1024E0001B1D1A80704700000038014008B5FDF739
:1024F00019FEFEF7DFFCFEF767FA0FA17820FEF762
:10250000CDFBFDF7DBFE11A0FFF7AAFE0223134A65
:1025100000211348FEF77CFD009012A0FFF7A0FEFB
:102520006A4616A10220FEF72BFE0020FEF7D0FF20
:10253000FEF71EFD002008BD2020202020746573BA
:1025400074206F6E65202020202020004F532049EA
:102550006E6974204F4B0D0A000000005C020020E1
:10256000190400084372656174204170705F546102
:10257000736B53746172740D0A00000053746172BE
:1025800074205461736B0000000000000000000024
:10259000000000000000000000000000000000003B
:1025A000000000000000000000000000000000002B
:1025B0000000000000000000000080018001800198
:1025C0008001800180018001800180018001800103
:1025D00080018001000000008001800100000000F7
:1025E000000000000000000000000000CC00CC0053
:1025F000CC00CC00CC00CC000000000000000000AB
:1026000000000000000000000000000000000000CA
:1026100000000000000000000000000000000000BA
:1026200000000000600C600C600C30063006FE1FDD
:10263000FE1F300638071803FE1FFE1F180318037D
:102640008C018C018C01000000008000E003F80F79
:102650009C0E8C1C8C188C009800F801E007800EF2
:10266000801C8C188C189C18B80CF00FE0038000AC
:1026700080000000000000000000000000000E18B4
:102680001B0C110C11061106110311039B018E0185
:10269000C038C06C60446044304430441844186C06
:1026A0000C380000000000000000E001F0033807D3
:1026B000180618063003F001F000F8009C310E33C4
:1026C000061E061C061C063FFC73F02100000000DD
:1026D0000000000000000000000000000C000C00E2
:1026E0000C000C000C000C000000000000000000BA
:1026F00000000000000000000000000000000000DA
:102700000000000000000000000000020003800143
:10271000C000C000600060003000300030003000B9
:10272000300030003000300060006000C000C000A9
:102730008001000300020000000020006000C000D3
:102740008001800100030003000600060006000669
:102750000006000600060006000300038001800159
:10276000C000600020000000000000000000000029
:1027700000000000C000C000D806F807E0013003E8
:10278000380700000000000000000000000000000A
:102790000000000000000000000000000000000039
:1027A0000000000080018001800180018001FC3F69
:1027B000FC3F800180018001800180010000000059
:1027C0000000000000000000000000000000000009
:1027D00000000000000000000000000000000000F9
:1027E00000000000000000000000800180010001E6
:1027F0000001800000000000000000000000000058
:1028000000000000000000000000000000000000C8
:10281000E007E007000000000000000000000000EA
:1028200000000000000000000000000000000000A8
:102830000000000000000000000000000000000098
:1028400000000000000000000000C000C000000008
:1028500000000000000000000000000C000C00065A
:1028600000060006000300030003800380018001CE
:102870008001C000C000C0006000600000000000D7
:1028800000000000000000000000E003F007380E28
:10289000180C0C180C180C180C180C180C180C1818
:1028A0000C180C18180C380EF007E003000000009C
:1028B0000000000000000000000000018001C001D5
:1028C000F001980188018001800180018001800170
:1028D00080018001800180018001800100000000F2
:1028E00000000000000000000000E003F80F180CDA
:1028F0000C180C1800180018000C000600038001CA
:10290000C000600030001800FC1FFC1F0000000029
:1029100000000000000000000000E001F807180EB1
:102920000C0C0C0C000C0006C003C007000C0018B7
:1029300000180C180C18180CF807E0030000000031
:1029400000000000000000000000000C000E000F5E
:10295000000F800DC00C600C600C300C180C0C0CBF
:10296000FC3FFC3F000C000C000C000C00000000C1
:1029700000000000000000000000F80FF80F180031
:1029800018000C00EC03FC071C0E001C00180018BB
:1029900000180C181C0C180EF807E00300000000CB
:1029A00000000000000000000000C007F00F381C0D
:1029B000181818000C00CC03EC0F3C0E1C1C0C1853
:1029C0000C180C18181C380EF007E003000000006B
:1029D00000000000000000000000FC1FFC1F000CB5
:1029E00000060006000380038001C001C000E00073
:1029F0006000600070003000300030000000000017
:102A000000000000000000000000E003F007380EA6
:102A1000180C180C180C3806F007F007180C0C18D6
:102A20000C180C180C18380CF80FE003000000000C
:102A300000000000000000000000E003F007380E76
:102A40001C0C0C180C180C181C1C381EF81BE01958
:102A50000018000C000C1C0EF807F001000000002C
:102A60000000000000000000000000000000000066
:102A70000000000080018001000000000000000054
:102A80000000000000000000800180010000000044
:102A90000000000000000000000000000000000036
:102AA0000000000080018001000000000000000024
:102AB0000000000000000000800180010001000112
:102AC0008000000000000000000000000000000086
:102AD00000000000000000000010001C800FE00358
:102AE000F8001800F800E003800F001C0010000040
:102AF00000000000000000000000000000000000D6
:102B00000000000000000000F81F000000000000AE
:102B1000F81F00000000000000000000000000009E
:102B200000000000000000000000000000000000A5
:102B3000000000000000000008003800F001C0079D
:102B4000001F0018001FC007F00138000800000037
:102B500000000000000000000000E003F80F180C67
:102B60000C180C180018000C000600038001C000AF
:102B7000C000C00000000000C000C0000000000055
:102B8000000000000000000000000000E00718182E
:102B90000420C229224A1144094409440944092253
:102BA0001113E20C024004201818E0070000000096
:102BB0000000000000000000000080038003C00649
:102BC000C006C006600C600C301830183018F83F92
:102BD000F83F1C700C600C6006C006C000000000CE
:102BE00000000000000000000000FC03FC0F0C0CC3
:102BF0000C180C180C180C0CFC07FC0F0C180C30E3
:102C00000C300C300C300C18FC1FFC0700000000CE
:102C100000000000000000000000C007F01F38386E
:102C20001C300C7006600600060006000600060058
:102C3000060006600C701C30F01FE007000000006A
:102C400000000000000000000000FE03FE0F060E62
:102C500006180618063006300630063006300630F4
:102C6000063006180618060EFE0FFE0300000000D0
:102C700000000000000000000000FC3FFC3F0C00D2
:102C80000C000C000C000C00FC1FFC1F0C000C00C6
:102C90000C000C000C000C00FC3FFC3F000000008E
:102CA00000000000000000000000F83FF83F18009E
:102CB0001800180018001800F81FF81F1800180056
:102CC0001800180018001800180018000000000074
:102CD00000000000000000000000E00FF83F3C781A
:102CE0000E6006E007C00300030003FE03FE03C0FE
:102CF00007C006C00EC03CF0F83FE00F0000000027
:102D0000000000000000000000000C300C300C300F
:102D10000C300C300C300C30FC3FFC3F0C300C30D5
:102D20000C300C300C300C300C300C30000000003B
:102D30000000000000000000000080018001800110
:102D4000800180018001800180018001800180017B
:102D5000800180018001800180018001000000006D
:102D60000000000000000000000000060006000651
:102D70000006000600060006000600060006000623
:102D80000006180618063807F003E00100000000EE
:102D90000000000000000000000006300618060CCD
:102DA000060606038601C60066007600DE008E0178
:102DB00006030606060C0618063006600000000032
:102DC00000000000000000000000180018001800BB
:102DD0001800180018001800180018001800180033
:102DE0001800180018001800F81FF81F0000000055
:102DF000000000000000000000000EE01EF01EF0C9
:102E00001EF036D836D836D836D866CC66CC66CCE6
:102E1000C6C6C6C6C6C6C6C686C386C300000000F0
:102E2000000000000000000000000C301C303C30AE
:102E30003C306C306C30CC30CC308C310C330C33BB
:102E40000C360C360C3C0C3C0C380C3000000000EE
:102E500000000000000000000000E007F81F1C3820
:102E60000E70066003C003C003C003C003C003C0EC
:102E700003C006600E701C38F81FE0070000000059
:102E800000000000000000000000FC0FFC1F0C38D8
:102E90000C300C300C300C300C18FC1FFC070C00F4
:102EA0000C000C000C000C000C000C0000000000DA
:102EB00000000000000000000000E007F81F1C38C0
:102EC0000E70066003E003C003C003C003C003C06C
:102ED00007E006630E3F1C3CF83FE0F700C000002F
:102EE00000000000000000000000FE0FFE1F06387A
:102EF0000630063006300638FE1FFE0706030606BB
:102F0000060C0618061806300630066000000000A1
:102F100000000000000000000000E003F80F1C0C9F
:102F20000C180C180C001C00F803E00F001E0038F1
:102F3000063006300E301C1CF80FE00700000000C1
:102F400000000000000000000000FE7FFE7F800106
:102F50008001800180018001800180018001800169
:102F6000800180018001800180018001000000005B
:102F7000000000000000000000000C300C300C309D
:102F80000C300C300C300C300C300C300C300C3061
:102F90000C300C300C301818F81FE007000000004F
:102FA0000000000000000000000003600630063052
:102FB00006300C180C180C18180C180C380E3006AB
:102FC0003006700760036003C001C001000000000C
:102FD000000000000000000000000360C361C36146
:102FE000C3616633663366336633663366336C1BA0
:102FF0006C1B6C1B2C1A3C1E380E380E0000000097
:10300000000000000000000000000FE00C7018300D
:103010003018700C600EC00780038003C003E00608
:10302000700C301C18180C300E6007E00000000017
:103030000000000000000000000003C006600C302B
:103040001C383818300C6006E007C003800180018E
:10305000800180018001800180018001000000006A
:1030600000000000000000000000FC7FFC7F00600A
:1030700000300018000C000600038001C000600052
:10308000300018000C000600FE7FFE7F00000000EC
:1030900000000000000000000000E003E00360000A
:1030A0006000600060006000600060006000600020
:1030B0006000600060006000600060006000600010
:1030C0006000E003E003000000003000300060001A
:1030D00060006000C000C000C000C001800180012D
:1030E000800100030003000300060006000000004A
:1030F00000000000000000000000E003E003000307
:1031000000030003000300030003000300030003A7
:103110000003000300030003000300030003000397
:103120000003E003E003000000000000C001C00154
:1031300060036003600330063006180C180C0000B2
:10314000000000000000000000000000000000007F
:10315000000000000000000000000000000000006F
:10316000000000000000000000000000000000005F
:1031700000000000000000000000FFFFFFFF000053
:10318000000000000000000000000C000C000C001B
:103190000C000C000C00000000000000000000000B
:1031A000000000000000000000000000000000001F
:1031B000000000000000000000000000000000000F
:1031C00000000000F003F8071C0C0C0C000FF00FBF
:1031D000F80C0C0C0C0C1C0FF80FF0180000000081
:1031E0000000000000000000000018001800180097
:1031F00018001800D803F80F380C181818181818E9
:10320000181818181818380CF80FD8030000000008
:1032100000000000000000000000000000000000AE
:1032200000000000C003F007300E180C1800180052
:1032300018001800180C300EF007C0030000000042
:103240000000000000000000000000180018001836
:1032500000180018C01BF01F301C18181818181878
:10326000181818181818301CF01FC01B0000000098
:10327000000000000000000000000000000000004E
:1032800000000000C003F00F300C1818F81FF81FE2
:10329000180018003818301CF00FC007000000009C
:1032A00000000000000000000000800FC00FC00000
:1032B000C000C000F007F007C000C000C000C000A0
:1032C000C000C000C000C000C000C000000000007E
:1032D00000000000000000000000000000000000EE
:1032E00000000000E00DF80F180E0C0C0C0C0C0C7C
:1032F0000C0C0C0C0C0C180EF80FE00D000C0C0C48
:103300001C06F807F0010000000018001800180063
:1033100018001800D807F80F381C181818181818B3
:10332000181818181818181818181818000000007D
:1033300000000000000000000000C000C00000000D
:1033400000000000C000C000C000C000C000C000FD
:10335000C000C000C000C000C000C00000000000ED
:1033600000000000000000000000C000C0000000DD
:1033700000000000C000C000C000C000C000C000CD
:10338000C000C000C000C000C000C000C000C0003D
:10339000C000F8007800000000000C000C000C00D9
:1033A0000C000C000C0C0C060C038C01CC006C0007
:1033B000FC009C018C030C030C060C0C00000000AC
:1033C00000000000000000000000C000C000C000BD
:1033D000C000C000C000C000C000C000C000C000ED
:1033E000C000C000C000C000C000C000000000005D
:1033F00000000000000000000000000000000000CD
:10340000000000007C3CFF7EC7E383C183C183C111
:1034100083C183C183C183C183C183C10000000014
:10342000000000000000000000000000000000009C
:10343000000000009807F80F381C18181818181802
:10344000181818181818181818181818000000005C
:10345000000000000000000000000000000000006C
:1034600000000000C003F00F300C181818181818CE
:10347000181818181818300CF00FC00300000000BE
:10348000000000000000000000000000000000003C
:1034900000000000D803F80F380C18181818181876
:1034A000181818181818380CF80FD8031800180036
:1034B00018001800180000000000000000000000C4
:1034C00000000000C01BF01F301C18181818181836
:1034D000181818181818301CF01FC01B00180018F6
:1034E0000018001800180000000000000000000094
:1034F00000000000B007F003700030003000300022
:10350000300030003000300030003000000000009B
:1035100000000000000000000000000000000000AB
:1035200000000000E003F003380E180C3800F00330
:10353000C007000C180C380EF007E0030000000074
:103540000000000000000000000000008000C0003B
:10355000C000C000F007F007C000C000C000C000FD
:10356000C000C000C000C000C0078007000000000D
:10357000000000000000000000000000000000004B
:10358000000000001818181818181818181818181B
:10359000181818181818381CF01FE019000000003F
:1035A000000000000000000000000000000000001B
:1035B000000000000C18180C180C180C300630060F
:1035C0003006600360036003C001C001000000001A
:1035D00000000000000000000000000000000000EB
:1035E00000000000C141C141C36163636363636361
:1035F0003636363636361C1C1C1C1C1C00000000DF
:1036000000000000000000000000000000000000BA
:10361000000000001C38381C300C6006600360039A
:10362000600360036006300C381C1C38000000008A
:10363000000000000000000000000000000000008A
:10364000000000001830301830187018600C600C42
:10365000E00CC006C0068003800380038001800167
:10366000C001F00070000000000000000000000039
:1036700000000000FC1FFC1F000C0006000380017E
:10368000C000600030001800FC1FFC1F000000009C
:103690000000000000000000000000038001C000E6
:1036A000C000C000C000C000C0006000600030006A
:1036B00060004000C000C000C000C000C000C000EA
:1036C00080010003000000000000800180018001F3
:1036D00080018001800180018001800180018001E2
:1036E00080018001800180018001800180018001D2
:1036F000800180018001000000006000C000C00166
:103700008001800180018001800100030003000628
:10371000000300018001800180018001800180019F
:10372000C000600000000000000000000000000079
:103730000000000000000000F010F81F080F00005B
:103740000000000000000000000000000000000079
:103750000000000000000000000001000200010065
:10376000030001000200010004000100020001004A
:103770000300010002000100050001000200010039
:10378000030001000200010004000100020001002A
:103790000300010002000100060001000200010018
:1037A000030001000200010004000100020001000A
:1037B00003000100020001000500010002000100F9
:1037C00003000100020001000400010002000100EA
:1037D00003000100020001000700010002000100D7
:1037E00003000100020001000400010002000100CA
:1037F00003000100020001000500010002000100B9
:1038000003000100020001000400010002000100A9
:103810000300010002000100060001000200010097
:103820000300010002000100040001000200010089
:103830000300010002000100050001000200010078
:103840000300010002000100040001000200010069
:103850000300010002000100783800080000002089
:103860006000000080220008D838000860000020B6
:10387000A0200000902200080000000001020304C4
:103880000102030406070809020406080000FFFFFE
:103890000000000000000000000000000000000028
:1038A0000000000000000000000000000000000018
:1038B0000000000000000000000000000000000008
:1038C00000000000000000000000000000000000F8
:0838D0000000000000000000F0
:04000005080000ED02
:00000001FF
